:020000040800F2
:100000000000082469360008E1290008E5290008F5
:10001000E9290008ED290008F12900080000000086
:10002000000000000000000000000000F1F60008E1
:10003000F52900080000000081F700085DF00008C5
:10004000B9360008B9360008B9360008B9360008D4
:10005000B9360008B9360008B9360008B9360008C4
:10006000B9360008F9290008B9360008B936000881
:10007000B9360008B9360008B9360008B9360008A4
:10008000B9360008B9360008B9360008B936000894
:10009000B9360008B9360008B9360008B936000884
:1000A000B9360008B9360008B9360008B936000874
:1000B000012A0008B9360008B9360008B936000828
:1000C000B9360008B9360008B9360008B936000854
:1000D000B9360008B9360008B9360008B936000844
:1000E000B9360008B936000800000000B93600082B
:1000F000B9360008B9360008B9360008B936000824
:10010000B9360008B9360008B9360008B936000813
:10011000B9360008B9360008B9360008B936000803
:10012000B9360008B9360008B9360008B9360008F3
:10013000B9360008B9360008B9360008B9360008E3
:10014000B9360008B93600080000000000000000C1
:10015000B9360008B9360008B9360008B9360008C3
:10016000B9360008B9360008B9360008B9360008B3
:10017000B93600080D2A0008B93600080000000052
:10018000B9360008B9360008B9360008B936000893
:10019000B9360008B9360008B9360008B936000883
:1001A000192A0008B9360008252A0008B9360008BF
:1001B000B9360008B9360008B9360008B936000863
:1001C000B9360008B9360008B9360008B936000853
:1001D000B9360008B9360008B9360008B936000843
:1001E000B9360008B9360008B9360008B936000833
:1001F000B9360008B9360008B9360008B936000823
:10020000B9360008B9360008B9360008B936000812
:10021000B9360008B9360008B9360008B936000802
:10022000B9360008312A00083D2A0008B93600080E
:10023000B9360008B9360008B9360008B9360008E2
:10024000B9360008B9360008B9360008B9360008D2
:10025000B9360008B9360008B9360008B9360008C2
:10026000B9360008B9360008B9360008B9360008B2
:10027000B9360008B9360008B9360008B9360008A2
:10028000B9360008B9360008B93600080000000089
:08029000B9360008B936000878
:1002A00010B5054C237833B9044B13B10448AFF3B0
:1002B00000800123237010BD900200240000000084
:1002C0009C77040808B5034B1BB103490348AFF3FF
:1002D000008008BD00000000940200249C77040800
:1002E00010F8012B11F8013B012A28BF9A42F7D0E0
:1002F000D01A7047034613F8012B002AFBD1181AB5
:100300000138704753B94AB9002908BF00281CBFFB
:100310004FF0FF314FF0FF3000F070B9ADF1080C35
:100320006DE904CE00F006F8DDF804E0DDE9022313
:1003300004B070472DE9F047089E0D4604460F466D
:10034000002B4AD18A42944665D9B2FA82F343B16E
:1003500002FA03FCC3F120029F4020FA02F2174385
:100360009C404FEA1C4E1FFA8CF5B7FBFEF1220CA5
:100370000EFB117742EA074201FB05F090420AD9D1
:100380001CEB020201F1FF3780F01C81904240F229
:10039000198102396244121AA4B2B2FBFEF00EFBBC
:1003A000102244EA024400FB05F5A5420AD91CEBE1
:1003B000040400F1FF3280F00781A54240F204817D
:1003C0006444023840EA0140641B00211EB1DC4055
:1003D0000023C6E90043BDE8F0878B4208D9002E10
:1003E00000F0ED800021C6E900050846BDE8F08771
:1003F000B3FA83F1002949D1AB4202D3824200F221
:10040000F880841A65EB030201201746002EE2D023
:10041000C6E90047DFE702B9FFDEB2FA82F3002B3C
:1004200040F090808A1A4FEA1C471FFA8CFE012187
:10043000B2FBF7F507FB1520220C42EA00420EFB47
:1004400005F0904208D91CEB020205F1FF3802D2F8
:10045000904200F2CB804546121AA4B2B2FBF7F0EC
:1004600007FB102244EA02440EFB00FEA64508D911
:100470001CEB040400F1FF3202D2A64500F2BB805F
:100480001046A4EB0E0440EA05409FE7C1F12007A7
:100490008B4022FA07FC4CEA030C05FA01F420FA1F
:1004A00007F3FD404FEA1C492343B5FBF9F81FFA57
:1004B0008CFE09FB18551C0C44EA054408FB0EF59C
:1004C000A54202FA01F200FA01F00BD91CEB040478
:1004D00008F1FF3A80F08880A54240F28580A8F1BB
:1004E00002086444641B9DB2B4FBF9F309FB134496
:1004F00045EA044403FB0EFEA64508D91CEB0404A0
:1005000003F1FF356CD2A6456AD9023B644443EA45
:100510000843A3FB0295A4EB0E04AC42C846AE46CA
:1005200056D353D056B1B0EB080264EB0E0404FA74
:1005300007F7CA40CC401743C6E9007418460021AB
:10054000BDE8F087C3F1200102FA03FC20FA01F2B2
:1005500025FA01F19D402A434FEA1C471FFA8CFE01
:10056000B1FBF7F007FB1015110C41EA054100FB48
:100570000EF58D4204FA03F408D91CEB010100F1D9
:10058000FF382FD28D422DD902386144491B92B2D7
:10059000B1FBF7F507FB151142EA014205FB0EF12D
:1005A000914208D91CEB020205F1FF3816D29142A4
:1005B00014D9023D6244521A45EA004138E73146F7
:1005C000304608E73946E6E61046FBE64845A9D23C
:1005D000B9EB020865EB0C0E013BA3E74546EAE7E1
:1005E0002B4694E74046D1E7D0467BE7023D624484
:1005F00032E708460AE76444023842E7704700BF22
:10060000002323480421012210B5224C8AB08382A2
:1006100000930393016182610377436380F838306C
:10062000C0E90043C0E90233C0E90933C0E90B3334
:10063000CDE90133CDE90433CDE90633CDE9083303
:1006400003F0A6FDD0B9002369461148009303F0DA
:10065000ADFED0B9104806220023104C03A98DF836
:100660002530CDE9030204220948CDE90534CDE95E
:10067000072303F0A7FA20B90AB010BD01F072FCFD
:10068000E1E701F06FFC0AB010BD01F06BFCE1E79F
:10069000AC02002400200240020030040000FF47AA
:1006A00000231C480421012210B51B4C88B0838212
:1006B00001930460016182610377436380F83830FD
:1006C000C0E90233C0E90933C0E90B33CDE9023395
:1006D000CDE90433CDE9063303F05AFD98B90F484C
:1006E000062200230E4C01A98DF81D30CDE9010230
:1006F00004220848CDE90334CDE9052303F062FA6A
:1007000020B908B010BD01F02DFCE8E701F02AFC8B
:1007100008B010BD1003002400600258020030042D
:100720000000FF47374A036810B593428CB04FF082
:100730000004CDE90644CDE908440A9404D0324AC5
:10074000934239D00CB010BD304B06A9D3F8D82055
:1007500042F02002C3F8D820D3F8D82002F02002BB
:100760000192019AD3F8E02042F00402C3F8E0209D
:10077000D3F8E02002F004020292029AD3F8E020BB
:1007800042F00202C3F8E0200122D3F8E03003F087
:1007900002030393032303981D48CDE9062304F0C5
:1007A0004BFB0222032306A91A480894CDE906232D
:1007B00004F042FB0CB010BD144B4FF08061D3F835
:1007C000E020084642F08072C3F8E020D3F8E02031
:1007D00002F080720492049AD3F8E02042F00402FE
:1007E000C3F8E020D3F8E03003F004030593059B41
:1007F00003F0DEF94FF00061084603F0D9F90CB0C0
:1008000010BD00BF002002400060025800440258A2
:10081000000802580004025808B508480023084997
:100820000122838001600262C0E9053303F084FE87
:1008300000B908BDBDE8084001F094BB7403002472
:10084000004C02580A4B02689A4200D07047A3F548
:10085000006382B0D3F8E02042F40022C3F8E02025
:10086000D3F8E03003F400230193019B02B07047FA
:10087000004C02580000000000B58BB0242200217B
:10088000684646F08FFE1848184B036003F0CAFE16
:10089000B8B900226946144804929FED0F7B8DED94
:1008A000007B9FED0F7B8DED027B03F0D1FE80B9C5
:1008B000102269460C4803F0CBFE28B90BB05DF856
:1008C00004FB01F04FFBE4E701F04CFB0BB05DF8DB
:1008D00004FB01F047FBEBE7000000000000000014
:1008E0000000000001000000980300240074004094
:1008F0001B4A0023016800B5914289B0CDE902335B
:10090000CDE90433069302D009B05DF804FB154B22
:1009100002A91548D3F8E82042F00052C3F8E820B5
:10092000D3F8E82002F000520092009AD3F8E020B9
:1009300042F00102C3F8E020D3F8E03003F00103F5
:100940009FED057B0193019B8DED027B04F074FA12
:1009500009B05DF804FB00BF300000000300000098
:1009600000740040004402580000025808B51248C4
:10097000002302221149C365C0E91132C0E91333D3
:10098000C0E91533C0E90013C0E9022303F00CFFEE
:1009900028B90121084803F0DFFF40B908BD01F084
:1009A000E1FA0121044803F0D7FF0028F6D0BDE8A2
:1009B000084001F0D7BA00BFAC0300240010005279
:1009C0000F4B02689A4200D070470E4B5A2000220B
:1009D000052110B5D3F8D44082B044F01004C3F818
:1009E000D440D3F8D43003F010030193019B03F0FB
:1009F00057FD5A2002B0BDE8104003F08FBD00BF84
:100A0000001000520044025838B515480023012256
:100A100004210224134D0382837405608166C0E9BA
:100A20000233C0E90C23C0E90E33C0E91031C0E93C
:100A30001231C0E91431C0E91633C0E9183310236C
:100A4000C0E90624C0E90842C0E90A22436103F074
:100A5000F3FF00B938BDBDE8384001F083BA00BFEC
:100A60001804002400A0004038B5154800230122D6
:100A700004210224134D0382837405608166C0E95A
:100A80000233C0E90C23C0E90E33C0E91031C0E9DC
:100A90001231C0E91431C0E91633C0E9183310230C
:100AA000C0E90624C0E90842C0E90A22436103F014
:100AB000C3FF00B938BDBDE8384001F053BA00BFEC
:100AC000B804002400A40040D0B5BEB00021044604
:100AD000C8220CA80A91CDE90611CDE9081146F00B
:100AE00061FD2368514A934204D0514A934258D041
:100AF0003EB0D0BD4FF4004600274FF080530CA805
:100B0000CDE90C67299308F0D9FC002840F08780D4
:100B1000484A13680133012B13600CD1464BD3F8BC
:100B2000EC2042F48072C3F8EC20D3F8EC3003F4EC
:100B300080730193019B404B4FF400700221092404
:100B4000D3F8E0200026002742F00202C3F8E0209C
:100B5000D3F8E02002F002020292029AD3F8E020D9
:100B600042F00102C3F8E020D3F8E0300A9403F029
:100B70000103CDE90601039306A93048039BCDE9A3
:100B8000086704F059F94FF40062022306A92C48C3
:100B90000A94CDE90867CDE9062304F04DF93EB08B
:100BA000D0BD4FF4004600274FF080530CA8CDE98C
:100BB0000C67299308F082FC002833D11D4A136882
:100BC0000133012B13600CD11B4BD3F8EC2042F402
:100BD0008072C3F8EC20D3F8EC3003F480730493F4
:100BE000049B154B42F2200602270924D3F8E0208B
:100BF00006A9124842F00202C3F8E020D3F8E03020
:100C00000A9403F002030593059BCDE906670026CD
:100C10000027CDE9086704F00FF93EB0D0BD01F020
:100C2000A1F975E701F09EF9C8E700BF00A00040F8
:100C300000A4004014040024004402580004025898
:100C400000000258000000002DE9F0473C4C01254F
:100C50004FF0080900230E464FF6FF722146074663
:100C60002560A560C4F80490E3600AF0D7FC002872
:100C70005BD18046284602F083FF4FF6FF72214683
:100C80003846C4E90258C4E900590AF0C7FC2846AE
:100C900002F076FFC4F80C804FF002084FF6FF72A6
:100CA00021463846C4F80080C4E901990AF0B6FC30
:100CB0008246002839D1284602F062FF73684FF659
:100CC000FF7221463846C4F80CA0C4F80890C4E965
:100CD00000390AF0A3FC40BB284602F051FF214630
:100CE0003846A560D6E903329FED137B1343726942
:100CF0001343B2691343F26913434FF6FF7284ED55
:100D0000007BE3600AF08AFC78B9284602F038FFDD
:100D1000B16838460AF0A2FC044630B9414638466C
:100D20000AF0B4FC2046BDE8F0874FF0FF30BDE884
:100D3000F08700BFAFF3008004000000080000004F
:100D40005805002482B0002301930093009BB3F563
:100D5000001F0CD2009B019A9B0003F150431A60C4
:100D6000009B01330093009BB3F5001FF2D30023D7
:100D70000093009BB3F5001F07D312E0009B0133E3
:100D80000093009BB3F5001F0BD2009B9B0003F167
:100D900050431B68019A9A42F0D04FF0FF3002B0E6
:100DA0007047002002B07047234800230722032128
:100DB00010B5C0E9023388B0C36183620423039293
:100DC0001E4C009104600124069169464460CDE9FF
:100DD000012304220323CDE9042320224023C0E978
:100DE00004234FF400634FF4C07203624FF4805346
:100DF000826143620AF0E8FBB0B91149082003227E
:100E0000002340F20364CB608C60C1E90002302013
:100E10004FF40072C1E904300748C1E90632FFF718
:100E200013FF20B908B010BD01F09CF8E5E701F010
:100E300099F808B010BD00BF6C0500244041005275
:100E4000A005002440480023F0B50168B9B0CDE901
:100E50000133CDE90333059309B139B0F0BD012366
:100E6000A8220324802503600EA846F09BFB0422E1
:100E70004FF080700021022308920A92B4220B9353
:100E800009921893CDE9060106A8CDE90C4508F0B2
:100E900015FB002854D12D4B022701260325D3F83A
:100EA000D4200C2401A92A4842F48052C3F8D4204B
:100EB000D3F8D430049503F480530594009340F2A2
:100EC000FF63009A0193CDE9027603F0B5FF4FF678
:100ED000837301A91F480193CDE90276CDE904543B
:100EE00003F0AAFF4FF6E07301A91B480193CDE977
:100EF0000276CDE9045403F09FFF48F2371301A9AD
:100F000016480193CDE90276CDE9045403F094FF2D
:100F10004CF2037301A912480193CDE90276CDE9A1
:100F2000045403F089FF4FF63F0301A90D480297CF
:100F300005940193CDE9036503F07EFF39B0F0BD60
:100F400001F010F8A7E700BF68050024004402582C
:100F50000020025800100258001C025800180258C5
:100F6000000C02580014025808B502F0BBFB012027
:100F70000EF012F9FBE700BF08B539F003FDFCE7FE
:100F800008B50A2036F0B4FB0A200EF005F9F8E7A0
:100F9000704700BF704700BF10B50C4A00210C48D5
:100FA0000EF0B0F80B4B04460B4A00210B481C60B6
:100FB0000EF0A8F80A4B04460A4A00210A481C60B1
:100FC0000EF0A0F8094B186010BD00BFA878040807
:100FD000690F0008C0050024CC780408810F0008C0
:100FE000C4050024F0780408790F0008C80500241F
:100FF0002DE9F04FA04B93B000244FF48061DFF84F
:101000009082012510944FF4807BDFF8889240464F
:10101000DFF884A2994F9A4ECDE90C44CDE90E44F5
:10102000D3F8E02042F48072C3F8E020D3F8E02047
:1010300002F480720192019AD3F8E02042F0020299
:10104000C3F8E020D3F8E02002F002020292029AF4
:10105000D3F8E0200A43C3F8E020D3F8E0200A40A8
:101060000392039AD3F8E02042F04002C3F8E02054
:10107000D3F8E02002F040020492049AD3F8E02072
:1010800042F00802C3F8E020D3F8E02002F00802A2
:101090000592059AD3F8E02042F00402C3F8E0205C
:1010A000D3F8E02002F004020692069AD3F8E0207A
:1010B00042F00102C3F8E020D3F8E02002F0010280
:1010C0000792079AD3F8E02042F01002C3F8E0201C
:1010D000D3F8E02002F010020892089AD3F8E0203A
:1010E00042F40072C3F8E020D3F8E02002F400726A
:1010F0000992099AD3F8E02042F08002C3F8E02078
:10110000D3F8E02002F080020A920A9AD3F8E02095
:1011100042F02002C3F8E0202246D3F8E03003F08A
:1011200020030B930B9B04F087F8224648464FF4AC
:10113000804104F081F8224650464FF4806104F06B
:101140007BF8224638464FF4007104F075F82A46C1
:101150003046402104F070F84FF480620CA94046FC
:101160000C920F94CDE90D5403F066FE0CA945488E
:101170000E949FED3B7B8DED0C7B03F05DFE0CA987
:1011800048460E949FED387B8DED0C7B03F054FEAA
:101190004FF4804148460F940C910CA94FF0000980
:1011A000CDE90D5403F048FE0CA937480E949FED8D
:1011B000307B8DED0C7B03F03FFE02230CA9304603
:1011C000CDF830B0CDE90D34CDE90F4403F034FE55
:1011D00040464FF088080CA90E94CDE90C8903F025
:1011E0002BFE4FF4806250460CA90C920F94CDE96F
:1011F0000D5403F021FE4FF400730CA938460C93F4
:101200000F94CDE90D5403F017FE022338460CA9C4
:101210000D930823CDF830B01093CDE90E4403F0C0
:101220000BFE08224FF404130CA918480E95CDE9C3
:101230000C2303F001FE40230CA93046CDE90C3508
:10124000CDE90E4403F0F8FD22460721092003F002
:1012500027F9092003F062F913B0BDE8F08F00BF51
:1012600010000000000000004080000000000000AE
:101270000C00000000000000004402580024025846
:10128000000002580004025800100258001C0258C6
:1012900000180258000802580014025810B51748E8
:1012A000002317490124174A036280E81E00C0E9A1
:1012B0000433C0E9063304F01FFF50B900210F4882
:1012C00005F0DAF868B900210C4805F0FFF880B99C
:1012D00010BD00F047FE0021084805F0CDF80028B9
:1012E000F1D000F03FFE0021044805F0EFF800289F
:1012F000EED0BDE8104000F035BE00BFCC050024A4
:1013000000540040DB3FB00010B51B4800231B49D0
:1013100001241B4A036280E81E00C0E90433C0E9CF
:10132000063304F0E9FE78B94FF48051124805F015
:10133000A3F890B90021104805F0C8F8A8B9022018
:10134000BDE8104005F0EEB800F00CFE4FF48051FF
:10135000094805F091F80028ECD000F003FE0021C8
:10136000054805F0B3F80028E9D000F0FBFD0220A5
:10137000BDE8104005F0D6B8200600240058004013
:10138000551D500010B51748002317490124174A6E
:10139000036280E81E00C0E90433C0E9063304F0AC
:1013A000ABFE50B900210F4805F066F868B900217E
:1013B0000C4805F08BF880B910BD00F0D3FD00217A
:1013C000084805F059F80028F1D000F0CBFD0021C5
:1013D000044805F07BF80028EED0BDE8104000F08E
:1013E000C1BD00BF74060024001C0058DB3FB000E4
:1013F000F0B5C1B000210446C8220EA80C91CDE979
:101400000811CDE90A1146F0CDF82368614A9342EC
:1014100007D0614A934237D0604A93427ED041B0B0
:10142000F0BD082200230EA8CDE90E2308F046F8EF
:10143000002840F0A5805A4C0422C0261227D4F878
:10144000E03008A9574843F00203C4F8E030D4F86C
:10145000E0300C92012203F002030193019B03236D
:10146000CDE90867CDE90A2303F0E6FCD4F8E830BB
:1014700043F40013C4F8E830D4F8E83003F4001360
:101480000293029B41B0F0BD082200230EA8CDE9D3
:101490000E2308F013F8002875D1414C10201221BA
:1014A0000425D4F8E0300026032743F08003C4F875
:1014B000E030D4F8E03003F080030393039BD4F8CA
:1014C000E03043F00203C4F8E030D4F8E0300C958B
:1014D00003F00203CDE90801049308A93248049BF4
:1014E000CDE90A6703F0A8FC4FF40062122308A9B3
:1014F0002C480C95CDE90823CDE90A6703F09CFC44
:10150000D4F8E83043F48003C4F8E830D4F8E83085
:1015100003F480030593059B41B0F0BD1022002326
:101520000EA8CDE90E2307F0C9FF78BB1C4C04229E
:101530004FF440561227D4F8E03008A91B4843F076
:101540000803C4F8E030D4F8E0300C92002203F035
:1015500008030693069B0323CDE90867CDE90A2318
:1015600003F06AFCD4F8F43043F08003C4F8F4309C
:10157000D4F8F43003F080030793079B41B0F0BD2B
:1015800000F0F0FC57E700F0EDFC86E700F0EAFC25
:10159000CCE700BF0054004000580040001C005839
:1015A0000044025800040258001C0258000C025863
:1015B00008B50548054B036005F04EFA00B908BDB3
:1015C000BDE8084000F0CEBCC80600240030005240
:1015D0003D4B02689A4200D070473C4A0023D2F843
:1015E000D41070B541F02001394E0446802082B0FD
:1015F0003062C6E90230C2F8D410D2F8D42035499E
:1016000002F020023361B36101921122F36101986B
:101610003046C6E90D330223C6E9001273614FF06C
:10162000007120234FF4A042C6E909134FF4203380
:10163000C6E90B2306F070FA002839D100222448AD
:10164000114606F0E3FA00283BD1234D2022002367
:101650002663EA611320AA624FF42032AB602B624A
:101660001E493464C5E90B32C5E90433C5E90D33BD
:1016700008238022AB614FF00073EA606B62C5E91A
:101680000010284606F048FAC0B900221248114658
:1016900006F0BCFA78B965637920002207212C6432
:1016A00002F0FEFE792002B0BDE8704002F036BFC5
:1016B00000F058FCC2E700F055FCECE700F052FCEB
:1016C000E3E700F04FFCC0E700300052004402584E
:1016D00020070024000200528C070024C0010052A1
:1016E00008B5114800234FF6FF72104903634261A9
:1016F0004FF4000201609FED0A7BC0E90133C0E9AD
:101700000333002380ED087BC0E90A2305F0EAFFDC
:1017100000B908BDBDE8084000F024BCAFF300806C
:101720000000000000000000F8070024002400581A
:10173000D0B5BCB000210446C8220AA80891CDE962
:101740000411CDE9061145F02DFF2A4B22689A427B
:1017500001D03CB0D0BD402200230AA8CDE90A2325
:1017600007F0ACFE002841D1234B4FF480600221EA
:101770000324D3F8F4200026002742F40072C3F8B3
:10178000F420D3F8F42002F400720192019AD3F805
:10179000E02042F00202C3F8E020D3F8E02002F09B
:1017A00002020292029AD3F8E02042F00802C3F843
:1017B000E020D3F8E030089403F00803CDE90401F9
:1017C000039304A90D48039BCDE9066703F034FB9E
:1017D0004FF40062022304A909480894CDE9066782
:1017E000CDE9042303F028FB3CB0D0BD00F0BAFBE8
:1017F000BAE700BF00240058004402580004025811
:10180000000C025810B58EB03422002101A845F01A
:10181000C9FE2548002325495822838680F83630A2
:10182000C0E90013C0E9063217214FF4AB62C0E9EA
:101830000233C0E90433C0E908124FF4B46340F244
:101840003732C0E90A2340F24633036305F0BCFF98
:1018500010BB022400224FF4A0604FF4487305949B
:10186000FF240B9001A9069405240C930792ADF870
:1018700034208DF83620CDE901204FF48060CDE989
:1018800003234FF0504308900748CDE9094306F081
:1018900071F820B90EB010BD00F064FBD9E700F07C
:1018A00061FB0EB010BD00BF3008002400100050D6
:1018B000664B02682DE9F0419A428EB04FF0000469
:1018C000CDE90844CDE90A440C9402D00EB0BDE83D
:1018D000F0815F4B03250E2708A9D3F8E4200226E8
:1018E0005C484FF0090842F00802C3F8E420D3F83E
:1018F000E42002F008020192019AD3F8E02042F4B9
:101900008062C3F8E020D3F8E02002F48062029203
:10191000029AD3F8E02042F40072C3F8E020D3F832
:10192000E02002F400720392039AD3F8E02042F020
:101930004002C3F8E020D3F8E02002F04002049215
:10194000049AD3F8E02042F01002C3F8E020D3F864
:10195000E02002F010020592059AD3F8E02042F44C
:101960008072C3F8E020D3F8E02002F4807206927F
:10197000069AD3F8E02042F08002C3F8E020FD226E
:10198000D3F8E03003F0800307930223CDE90B572F
:10199000CDE90823079B03F04FFA4EF6FF0308A991
:1019A0002D4808930C970996CDE90A4503F044FAAF
:1019B0004FF4804308A929480893CDE90964CDE98B
:1019C0000B5703F039FA4FF4805308A922480893C3
:1019D0000B95CDF83080CDE9096403F02DFA402352
:1019E00008A91F480893CDE90964CDE90B5703F016
:1019F00023FA4FF4084308A91A480893CDF8308019
:101A00000B95CDE9096403F017FA4FF4E04308A9F8
:101A100014480893CDE90964CDE90B5703F00CFA9B
:101A2000042308A91048089309960C97CDE90A45A4
:101A300003F002FA22460521582002F031FD582019
:101A400002F06CFD0EB0BDE8F08100BF0010005048
:101A50000044025800280258002402580018025876
:101A60000010025800200258001C02588B88C888B9
:101A7000B1F902C001330130F0B4B1F90040A0EB7C
:101A80000C00002602251B1B00B23F271BB240EAB8
:101A90000340C3F5A0614FF4A0631CFB034C0C4B47
:101AA000DC6D0C4B04EB4C041E60DD61DA601E61E2
:101AB0005D63DC63196458649F601A6842F40072C5
:101AC0001A601A6842F00102F0BC1A60704700BF49
:101AD0003008002400100052014835F095BD00BFC9
:101AE000F408002438B50E4D4FF47A230D4C0E4AFD
:101AF00028460E4935F0A0FC204635F07BFC237CBF
:101B00000B4920460B4A23F00303216062610A4916
:101B10000A4AE56023741162BDE8384035F09ABC8A
:101B2000D8080024F408002400803ED000401FD0D4
:101B3000000520036D1A0008D91A0008AC03002420
:101B4000234830B5037889B00C4663B903F0FF022F
:101B50002049214BA273B3F90030B1F90020638012
:101B6000228009B030BD1022002564210DEB020354
:101B70000291822105701948CDE900320123CDE997
:101B80000455CDE9065504F00DFBC8B99DF8133096
:101B900001259DF815101B029DF8122009020D4821
:101BA00003F47063A57301F470611A439DF8143057
:101BB00002800B43084803802280638009B030BD57
:101BC000044A054BB2F90020B3F90030A573F3E7DE
:101BD000680900246409002466090024CC05002457
:101BE00038B5144D01224FF48041134C284603F0C0
:101BF00023FB0A2001F0C4FF00224FF48041284655
:101C000003F01AFB0A2001F0BBFF01224FF48041D0
:101C1000284603F011FB0A2001F0B2FF204635F000
:101C200007FD064B0122204663602270BDE8384064
:101C300035F00EBD0008025844090024411B00087D
:101C4000082802D1014B01221A707047680900244C
:101C500030B5A1B04C2200210CA845F0A3FC2022F5
:101C6000002104A845F09EFC022006F001F93C4B3F
:101C700000213C4A0191D96A21F00101D962DB6A55
:101C800003F001030193936943F440439361936923
:101C900003F440430193019B93699804FCD5324BB4
:101CA000D3F8F41041F00201C3F8F4100021D3F886
:101CB000F43003F002030293029B03919169284BD5
:101CC00041F440419161926902F440420392D96A21
:101CD000244A41F00101D962DB6A03F00103039356
:101CE000039B93699904FCD50223082429204FF40F
:101CF000A021199301221B930425CDE9153300235C
:101D00001795CDE91C431E93F02318931823CDE9B2
:101D10000C010CA81A93CDE9112206F0CDFC034664
:101D200008B172B6FEE73F2206934023294604928B
:101D30000322099304A80B930592CDE907434FF4BE
:101D400080630A9307F0A2F808B172B6FEE74FF479
:101D500080224FF4400106F0A5FF21B030BD00BF46
:101D600000040058004802580044025800000000D7
:101D700000B5B3B00021C02202A845F013FC042333
:101D80000A20B5210E934FF480339FED0B7BCDE9F4
:101D90000A0168462A938DED007B9FED097B8DED4E
:101DA0000C7B07F08BFB08B172B6FEE733B05DF831
:101DB00004FB00BFAFF3008000000820000000001B
:101DC00002000000020000005F4A536913F4003370
:101DD00010B582B011D1BFF34F8FBFF36F8FC2F830
:101DE0005032BFF34F8FBFF36F8F536943F400330B
:101DF0005361BFF34F8FBFF36F8F5348436913F4A1
:101E0000803326D1C0F88430BFF34F8FD0F88040A4
:101E100043F6E07EC4F34E3CC4F3C9044FEA4C1CC5
:101E20000CEA0E01234641EA8372013BC0F86022AE
:101E30005A1CF8D1ACF1200C1CF1200FF0D1BFF3EB
:101E40004F8F436943F480334361BFF34F8FBFF338
:101E50006F8F3E4C01F052FEFFF7FAFEFFF788FF4E
:101E6000D4F8E030002043F00073C4F8E030D4F838
:101E7000E03003F000730193019B03F0B5FF0021F4
:101E8000084603F0BFFF4FF4803301E0013B4ED022
:101E900022681204FAD5FFF7ABF800F065F8FFF7F7
:101EA000FDF9FFF7AFFC01F057F9FFF76BFAFEF70A
:101EB000E3FCFEF75BFDFEF7A7FDFEF7D5FD00F0A6
:101EC000E9FB01F009F800F0EBFD00F0B7FE01F0CE
:101ED000FBF801F03FF9FEF79FFCFFF715FAFFF75B
:101EE000FFFB00F003FC01F07FF801F05BFA00F06B
:101EF000E1FAFEF759FFFFF75BFB00F01BFBFEF773
:101F00007FFBFEF7CDFBFEF71DFF00F04FFA80B11F
:101F100016F000F9FFF7E6FDFFF762FE11F0BEF9DB
:101F200000210B4809F09EFF30B172B6FEE772B691
:101F3000FEE700F095F9EBE70DF09EF8FFF72CF8BF
:101F40000DF0BEF8FEE700BF00ED00E000440258CF
:101F5000180C00240368B3F1804F00D0704701F0E3
:101F6000FDBD00BF72B6FEE70C4B7A2000220821AF
:101F700010B5D3F8D44082B044F00104C3F8D44083
:101F8000D3F8D43003F001030193019B02F088FAE7
:101F90007A2002B0BDE8104002F0C0BA00440258F6
:101FA000F0B5BDB000210446C8220AA80891CDE9C9
:101FB0000411CDE9061145F0F5FA3B4B22689A422F
:101FC00001D03DB0F0BD4FF0007200230AA8CDE96A
:101FD0000A2307F073FA002863D1344B4020022112
:101FE0000024D3F8D42003250A26092742F480428E
:101FF000C3F8D420D3F8D42002F480420092009A8F
:10200000D3F8E02042F04002C3F8E020D3F8E0200B
:1020100002F040020192019AD3F8E02042F020023F
:10202000C3F8E020D3F8E02002F020020292029AE6
:10203000D3F8E02042F00202C3F8E020D3F8E03009
:10204000089603F00203CDE90401039304A918489C
:10205000039BCDE9064502F0EFFEC022022304A94E
:1020600014480897CDE90423CDE9064502F0E4FEC3
:102070004FF44072022304A90E480896CDE90423C8
:10208000CDE9064502F0D8FE0422022304A90A483D
:102090000897CDE90645CDE9042302F0CDFE3DB019
:1020A000F0BDFFF75FFF98E7005000520044025870
:1020B000001802580014025800040258026808B5BB
:1020C0000C4B9A4200D008BD0B4A40210B48D2F875
:1020D000D43023F48043C2F8D43002F0DFFF4FF451
:1020E0007071074802F0DAFF04210648BDE8084095
:1020F00002F0D4BF005000520044025800180258A9
:1021000000140258000402582DE9F04F524D0024EB
:102110004FF440774FF0660B41F2883228464FF07B
:10212000990902264FF001084FF4807A2DED028BB9
:10213000A3B006A9CDF818B00B941394CDE90C7494
:10214000CDE90E44CDE9114405F0E8FF012001F08E
:1021500017FD06A941F2883228460C97CDF8189051
:102160000F940B941394CDE90D44CDE9114405F07F
:10217000D5FF0A2001F004FD052340F201106A4654
:1021800014934FF0407314A91C941D9310231996B7
:102190002194CDF87880009403969FED2D8BCDE9A6
:1021A000010341F288332846CDE91A74CDE91F4472
:1021B0008DED048B06F022F906A941F288322846FB
:1021C000CDF818B00B941394CDE90CA4CDE90E44CE
:1021D000CDE9114405F0A2FF404601F0D1FC06A96B
:1021E00041F288322846CDF830A0CDF818900F94EF
:1021F0000B941394CDE90D44CDE9114405F08EFF05
:102200000A2001F0BDFC052340F2011C6A4614932C
:102210004FF0407314A928461A97199603962194F3
:102220000094CDE91D381023CDE901C341F2883374
:102230008DED048BCDE91B44CDE91F4406F0DEF89B
:10224000001B18BF012023B0BDEC028BBDE8F08F4E
:1022500000000000000040006C09002400000000A5
:1022600010B54FF4407190B06C224FF0407008915F
:102270004FF4405102920A2200234FF440640B9025
:1022800007926A46059102A90B4809940A930F9395
:102290009FED077BCDE90D338DED007B06F026F930
:1022A000003818BF012010B010BD00BFAFF3008090
:1022B00000000000000000006C09002410B54FF47D
:1022C0004070A4B085224FF04071002302240E908C
:1022D000089241F28832119108A93348ADF80630CE
:1022E0000D93CDE90F33CDE91243CDE9143305F059
:1022F00015FF10B1012024B010BD41F288320DF15C
:102300000601294805F0F6FF0028F3D14FF4807349
:102310001F901B9041F288321C930623219016A92E
:102320001693CDE91D00CDE922001F4805F0F6FE09
:102330000028DFD140F20223F02216A91A480492A5
:1023400000220594CDE902334FF48003CDE9062342
:1023500005224FF08073169202AA1F9341F2883330
:1023600006F04CF80028C5D1BDF8060040F60F7203
:102370004AF2A003812102400B48089108A91343A7
:1023800041F28832ADF8063005F0C8FE0028B1D120
:1023900041F288320DF10601034805F02DFF0038A7
:1023A00018BF0120A7E700BF6C09002430B53F4CDF
:1023B000A3B03F4D2046256005F09EFE10B10120E0
:1023C00023B030BD0122034610201B212560E060B0
:1023D0002046A361E36121612362C4E901224FF435
:1023E0000072626105F02CFE00285BD1FFF78CFEC5
:1023F0000028E4D14FF48075B7230F9041F2883262
:102400000B9006A913900C950693CDE90D00CDE92C
:102410001100264805F082FE0028D0D102230522B3
:102420004FF44071012414924FF0407219930393BA
:1024300010231D92002202934FF480031C902190E0
:1024400000901E94CDE91A1040F20111CDE9042349
:10245000CDE91F00019141F288336A4614A913485F
:1024600005F0CCFF0028AAD1FFF728FF0028A6D14D
:102470000E4805F0E5FD03460028A0D1352041F2C5
:10248000883214A91A95149008481D931993219322
:10249000CDE91B33CDE91F3305F040FE003818BFEE
:1024A00001208DE7FFF75EFDA0E700BF6C09002467
:1024B0000050005208B506480023064AC0E9002330
:1024C00008F006FA00B908BDBDE80840FFF74ABDAC
:1024D000B80900240018024810B5B4B00446C82258
:1024E000002102A845F05EF8104B22689A4201D004
:1024F00034B010BD4FF40032002302A8CDE902230E
:1025000006F0DCFF70B90A4BD3F8DC2042F0400241
:10251000C3F8DC20D3F8DC3003F040030193019BC7
:1025200034B010BDFFF71EFDEDE700BF00180248F4
:102530000044025810B50A4800230A4C7F21FF22AC
:1025400003614361C0E90043C0E90212C0E90633F8
:1025500008F044FA00B910BDBDE81040FFF702BD15
:10256000CC0900240040005810B5B2B00446C8227F
:102570000021684645F016F80F4B22689A4201D0B8
:1025800032B010BD9FED0A7B4FF4007368468DEDAD
:10259000007B2E9306F092FF30B9084A136F43F484
:1025A0000043136732B010BDFFF7DCFCF5E700BF56
:1025B00000004000000000000040005800440258A5
:1025C000D0B5BCB000210446C8220AA80891CDE9C4
:1025D0000411CDE9061144F0E5FF2A4B22689A4226
:1025E00001D03CB0D0BD4FF4803200230AA8CDE921
:1025F0000A2306F063FF002840D1234B4FF4F85024
:1026000002210C24D3F8D4200026032742F4803280
:10261000C3F8D420D3F8D42002F480320192019A76
:10262000D3F8E02042F00402C3F8E020D3F8E02021
:1026300002F004020292029AD3F8E02042F008026B
:10264000C3F8E020D3F8E030089403F00803CDE9A4
:102650000401039304A90D48039BCDE9066702F02A
:10266000EBFB0422022304A909480894CDE906677C
:10267000CDE9042302F0E0FB3CB0D0BDFFF772FCD3
:10268000BBE700BF00700052004402580008025827
:10269000000C02581348002313494FF4800210B570
:1026A00080E80E0007244FF080614FF08052C36233
:1026B000C0E90343C0E90531C0E90723C0E9093394
:1026C000C0E90D33C0E90F33C0E91133C0E913335A
:1026D000C0E9153308F0F2FF00B910BDBDE81040A5
:1026E000FFF740BC6C0A002400300140134800236F
:1026F00013494FF4800210B580E80E0007244FF014
:1027000080614FF08052C362C0E90343C0E90531E4
:10271000C0E90723C0E90933C0E90D33C0E90F332D
:10272000C0E91133C0E91333C0E9153308F0C6FF1F
:1027300000B910BDBDE81040FFF714BCF40A002436
:1027400000380040D0B5C0B000210446C8220EA811
:102750000C91CDE90811CDE90A1144F023FF23685B
:102760005D4A934204D05D4A934264D040B0D0BDEC
:102770004FF4805200230EA8CDE90E2306F09EFEF2
:10278000002840F0A380564B4FF40070022105242E
:10279000D3F8F0200026032742F48052C3F8F0203B
:1027A000D3F8F02002F480520192019AD3F8E0208D
:1027B00042F04002C3F8E020D3F8E02002F04002EB
:1027C0000292029AD3F8E02042F00202C3F8E0201D
:1027D000D3F8E02002F002020392039AD3F8E0203B
:1027E00042F00802C3F8E020D3F8E0300C9403F084
:1027F0000803CDE90801049308A93A48049BCDE9F0
:102800000A6702F019FB0822022308A936480C9433
:10281000CDE90823CDE90A6702F00EFB80220223EE
:1028200008A932480C94CDE90A67CDE9082302F0E3
:1028300003FB40B0D0BD4FF4805200230EA8CDE979
:102840000E2306F03BFE002843D1254B4FF4805069
:1028500002210524D3F8E8200026032742F4804211
:10286000C3F8E820D3F8E82002F480420592059AE4
:10287000D3F8E02042F00102C3F8E020D3F8E020D2
:1028800002F001020692069AD3F8E02042F0040218
:10289000C3F8E020D3F8E0300C9403F00403CDE952
:1028A0000801079308A91248079BCDE90A6702F0BF
:1028B000C3FA0C22022308A90E480C94CDE90A673A
:1028C000CDE9082302F0B8FA40B0D0BDFFF74AFBCB
:1028D00059E7FFF747FBB8E70030014000380040F8
:1028E000004402580018025800040258000C025814
:1028F000000002580008025800B5002285B0104BB5
:102900000F21CDE90222D3F8F40040F00200C3F811
:10291000F4006FF00100D3F8F43003F002030193E8
:10292000019B01F0BDFD0022002302A8CDE9022396
:1029300005F06EFA05F094FA05B05DF804FB00BFEF
:10294000004402580F2801D90120704730B50146D4
:102950008BB0002204461C2001F0A2FD1C2001F0D7
:10296000DDFD1B4B1B4A694602A81460D3F8E82022
:1029700042F00102C3F8E820D3F8E83003F0010385
:102980000193019B06F07AFC079BC3B906F0E6FBB6
:10299000114B0022114C4FF08045A3FB001340F275
:1029A000E731204625609B0CA260013BC4E903127D
:1029B000636008F0D7FF30B101200BB030BD06F0E6
:1029C000CDFB4000E4E7204609F082F8F5E700BFC0
:1029D000004402581000002483DE1B437C0B0024BB
:1029E000FEE700BFFEE700BFFEE700BFFEE700BF57
:1029F000FEE700BF704700BF082002F021BC00BF07
:102A0000014809F0EDBA00BF7C0B0024014802F038
:102A100035BD00BF18120024014804F049BF00BFB3
:102A200030080024014801F003BF00BFAC030024BC
:102A3000014804F0B5BD00BFC8060024044808B52D
:102A400005F028F90348BDE8084005F023B900BFA8
:102A50008C0700242007002438B50D4C03460D498F
:102A60000D4D2268491B2AB113448B4208D81046E9
:102A7000236038BD09480246206013448B42F6D9D2
:102A800044F0FEFD0C234FF0FF320360104638BDCA
:102A9000C80B00240000082400C8000068E90224D4
:102AA00030B55D4C002397B05C494FF0FF322046B3
:102AB00005930E932361A361C4E90013C4E90232B4
:102AC000CDE90633CDE90F33CDE91133CDE9133329
:102AD00009F012F930BB002305A94F48059307936D
:102AE00009F05EFD20BB00230EA90C224A4810937A
:102AF00012939FED437B8DED0E7B09F031FCA0B965
:102B000023680025464A0C959342CDE90855CDE946
:102B10000A5510D0414A93423ED0424A934254D083
:102B200017B030BDFFF71EFAD5E7FFF71BFAE7E74E
:102B3000FFF718FAD7E73C4B01243C48D3F8E020D4
:102B400042F48062C3F8E020D3F8E02002F480620F
:102B50000192019AD3F8E02042F40072C3F8E02019
:102B60000222D3F8E0300C9403F4007302930223A2
:102B7000029908A9CDE9082302F05EF94FF48062BA
:102B8000022308A92A480892CDE90935CDE90B545A
:102B900002F052F917B030BD234B022408A9254892
:102BA000D3F8E02042F00102C3F8E020D3F8E0308F
:102BB0000C9403F001039FED147B0393039B8DEDB5
:102BC000087B02F039F917B030BD174B042408A96F
:102BD0001948D3F8E02042F01002C3F8E020D3F8FF
:102BE000E0300C9403F010039FED097B0493049BE9
:102BF0008DED087B02F020F917B030BDAFF30080F7
:102C0000600000000000000008000000020000005A
:102C10003000000002000000640C0024000C0040A2
:102C200000000140004001400044025800280258C2
:102C300000240258000002580010025800B500237A
:102C400085B011484FF6FF72104901938361C0E9C6
:102C50000013C0E90232CDE9023308F083FE50B917
:102C6000002301A908480193039309F099FC28B9AE
:102C700005B05DF804FBFFF775F9F1E7FFF772F9AE
:102C800005B05DF804FB00BFB00C0024001000404C
:102C90001C4A84B00368934216D01B4A934204D066
:102CA0001A4A93421FD004B07047194BD3F8E8205A
:102CB00042F00802C3F8E820D3F8E83003F0080334
:102CC0000293029B04B07047114BD3F8F02042F0FE
:102CD0000102C3F8F020D3F8F03003F001030193B0
:102CE000019B04B070470A4BD3F8F02042F48032C5
:102CF000C3F8F020D3F8F03003F480330393039B40
:102D000004B0704700000140000C0040004001404A
:102D1000004402580000000023490023026810B557
:102D20008A428AB0CDE90433CDE90633089313D043
:102D30001E4B9A4201D00AB010BD1D4BD3F8E820BB
:102D400042F01002C3F8E820D3F8E83003F0100393
:102D50000393039B0AB010BD154B022404A9154828
:102D6000D3F8E8202243C3F8E820D3F8E820224033
:102D70000192019AD3F8E02042F00402C3F8E02067
:102D8000D3F8E030089403F004039FED057B029331
:102D9000029B8DED047B02F04FF80AB010BD00BF1E
:102DA000800000000200000000040040001000400D
:102DB00000440258000802583F4A036830B5934265
:102DC0008BB04FF00004CDE90444CDE906440894EB
:102DD00007D03A4A934235D0394A93424BD00BB090
:102DE00030BD384B01253848D3F8E02042F48062EA
:102DF000C3F8E020D3F8E02002F480620092009A49
:102E0000D3F8E02042F40072C3F8E0200222D3F8A5
:102E1000E030089503F4007301930223019904A99B
:102E2000CDE9042302F008F84FF48062022304A9DC
:102E300026480492CDE90534CDE9074501F0FCFFB1
:102E40000BB030BD1F4B022404A92148D3F8E02069
:102E500042F00102C3F8E020D3F8E030089403F018
:102E600001039FED117B0293029B8DED047B01F02A
:102E7000E3FF0BB030BD134B042404A91548D3F86D
:102E8000E02042F01002C3F8E020D3F8E0300894CC
:102E900003F010039FED067B0393039B8DED047BF2
:102EA00001F0CAFF0BB030BD0800000002000000B6
:102EB000300000000200000000000140000C004053
:102EC00000400140004402580028025800240258E3
:102ED000000002580010025810B5002498B02C22AF
:102EE00021460CA800940494CDE90144CDE90544A1
:102EF000CDE90744CDE9094444F054FB3848394B47
:102F0000846103604FF6FF73C0E90144C0E90444E3
:102F1000C36008F0F1FE002843D1314808F036FEC6
:102F2000002845D10023002269462D48CDE9002321
:102F30000023029309F034FB002849D1002000212E
:102F400000226023CDE9080104A925480A92CDE9B1
:102F50000432CDE9062209F003FA002835D1002316
:102F6000042204A91E48049309F034F950BB00233D
:102F70004FF400520CA91A4816939FED177BCDE928
:102F80000C33CDE90E33CDE91032CDE912338DED9E
:102F9000147B09F05FFB70B91148FFF70DFF18B003
:102FA00010BDFEF7DFFF0E4808F0F0FD0028B9D095
:102FB000FEF7D8FFB6E7FEF7D5FF0948FFF7FCFE9E
:102FC00018B010BDFEF7CEFFD1E7FEF7CBFFC6E786
:102FD000FEF7C8FFB2E700BF0000000200000000DB
:102FE000CC0B00240000014010B5002498B02C2226
:102FF00021460CA801940494CDE90244CDE905448E
:10300000CDE90744CDE9094444F0CCFA2C48042327
:103010002C4A84608461C0E9002340F2E733C0E9B0
:103020000444C36008F068FE00282FD1002301A9E2
:1030300023480193039309F0B3FA002833D16020A9
:10304000002240F2E63304A904901D4807920A9238
:103050009FED177BCDE905328DED087B09F080F9F6
:10306000F0B900230CA91648129316939FED127B1A
:10307000CDE90C33CDE90E338DED107B09F0EAFA82
:1030800038B90F48FFF798FE18B010BDFEF76AFF79
:10309000CCE7FEF767FF0A48FFF78EFE18B010BDB9
:1030A000FEF760FFDDE7FEF75DFFC8E7AFF30080E6
:1030B00000000000000000000000000000200000F0
:1030C000180C00240040014010B500231F484FF4A5
:1030D000E1320C211E4C8360C0E90042C0E90513B7
:1030E0001A461946C0E90333C0E90733C0E909337A
:1030F00009F050FF70B90021144809F0ADFF88B9FC
:103100000021124809F0EAFFA0B9104809F086FF33
:10311000B8B910BDFEF726FF00210C4809F09CFF4E
:103120000028EDD0FEF71EFF0021084809F0D6FF69
:103130000028EAD0FEF716FF044809F06FFF0028C8
:10314000E7D0BDE81040FEF70DBF00BF900D002492
:10315000004C0040704700BF10B51F4800231F4CB3
:103160004FF4E1310C228360C0E90041C0E9033330
:10317000C0E90523C0E90733C0E9093309F0D6FEE9
:1031800070B90021144809F067FF88B9002112487E
:1031900009F0A4FFA0B9104809F040FFB8B910BD6C
:1031A000FEF7E0FE00210C4809F056FF0028EDD0A4
:1031B000FEF7D8FE0021084809F090FF0028EAD069
:1031C000FEF7D0FE044809F029FF0028E7D0BDE84B
:1031D0001040FEF7C7BE00BFFC0C002400100140E9
:1031E000D0B5C0B000210446C8220EA80C91CDE98C
:1031F0000811CDE90A1144F0D5F92368624A9342D7
:1032000008D0624A934251D0614A934200F08180D3
:1032100040B0D0BD022200230EA8CDE90E2306F057
:103220004DF9002840F0A6805A4B48F201000221D7
:103230000824D3F8E8200026002742F40022C3F82F
:10324000E820D3F8E82002F400220192019AD3F892
:10325000E02042F00102C3F8E020D3F8E02002F0C1
:1032600001020292029AD3F8E02042F00202C3F86F
:10327000E020D3F8E0300C9403F00203CDE908011C
:10328000039308A94448039BCDE90A6701F0D4FDE4
:103290004FF48072022308A940480C94CDE90A67D4
:1032A000CDE9082301F0C8FD40B0D0BD01220023C4
:1032B0000EA8CDE90E2306F001F900285DD1354BAB
:1032C0004FF4C06602270724D3F8F02008A932483B
:1032D00042F01002C3F8F020D3F8F02002F0100200
:1032E0000492049AD3F8E02042F00102C3F8E020EF
:1032F000D3F8E0300C9403F001030593059BCDE96E
:10330000086700260027CDE90A6701F095FD40B067
:10331000D0BD022200230EA8CDE90E2306F0CEF880
:1033200070BB1C4B782602270724D3F8E82008A995
:103330001B4842F40032C3F8E820D3F8E82002F436
:1033400000320692069AD3F8E02042F00802C3F851
:10335000E020D3F8E0300C9403F008030793079BB8
:10336000CDE9086700260027CDE90A6701F064FD72
:1033700040B0D0BDFEF7F6FD56E7FEF7F3FD9EE741
:10338000FEF7F0FDCDE700BF004C0040001001400B
:103390000044004000440258000002580004025853
:1033A000000C025808B5034903480BF031FE034BEB
:1033B000187008BD240E002414790408280E002477
:1033C0008446054808B513460A46614607F0B0FC36
:1033D000003818BF012008BDF009002484460548C4
:1033E00008B513460A46614607F01CFD003818BFB1
:1033F000012008BDF009002408B5034808F0D0F802
:10340000043818BF012008BDF00900240146014816
:1034100007F080BFF009002400B5012383B08DF8C8
:10342000073000F021F808B98DF807009DF8070073
:1034300003B05DF804FB00BF08B5FFF7EDFF0128FE
:1034400001D0022008BD074808F042F80028F9D151
:103450004FF48041034807F071FF003818BF012086
:1034600008BD00BFF00900240821044808B501F098
:10347000DDFEB0FA80F0400908BD00BF0010025820
:1034800038B5154C012525700BF008FE022801D037
:10349000207838BDFFF7D0FF90B12378012BF7D00B
:1034A0000E4D2A68002AF3D102210A200BF082FE79
:1034B00028600028ECD1237843F001032370E7E76C
:1034C0002570FFF799FF18B9237803F0FE032370E6
:1034D0002378DBB22370E0E7000000242C0E0024E8
:1034E00010B50123054C2370FFF786FF18B9237828
:1034F00003F0FE032370207810BD00BF00000024FD
:10350000184B30B518788BB010F0010406D1154671
:10351000032924D8DFE801F0060A121A0324204602
:103520000BB030BD0C4620460BB030BD01A8FFF7F4
:103530006DFF079B20462B600BB030BD01A8FFF745
:1035400065FF089B20462B800BB030BD01A8FFF71C
:103550005DFF089B20465B0A2B600BB030BD042446
:10356000DDE700BF000000242DE9F04182B00E46E7
:103570001746984647F22F550BF0BCFD044602E073
:10358000FFF73AFF40B10BF0B5FD001BA842F7D999
:10359000012002B0BDE8F081424639463046FFF7CF
:1035A0000FFF0028F4D10F4C024647F230530DF1C3
:1035B000060120680BF07EFE0028E9D1BDF8063038
:1035C000012BE5D10BF096FD47F22F55044603E0A1
:1035D000FFF712FF0028DCD00BF08CFD001BA84287
:1035E000F6D9D5E72C0E00242DE9F04182B00E4625
:1035F0001746984647F22F550BF07CFD044602E033
:10360000FFF7FAFE40B10BF075FD001BA842F7D999
:10361000012002B0BDE8F081424639463046FFF74E
:10362000DDFE0028F4D10F4C024647F230530DF175
:10363000060120680BF03EFE0028E9D1BDF80630F7
:10364000022BE5D10BF056FD47F22F55044603E05F
:10365000FFF7D2FE0028DCD00BF04CFD001BA84287
:10366000F6D9D5E72C0E0024DFF834D000F0D4F9D9
:103670000C480D490D4A002302E0D458C4500433CD
:10368000C4188C42F9D30A4A0A4C002301E01360A3
:103690000432A242FBD343F0F9FFFEF795FB7047DB
:1036A000000008240000002490020024248306085F
:1036B0009002002464E90224FEE70000042904D0FB
:1036C000052909D0022904D07047054B01221A7040
:1036D0007047034B19707047014B03221A707047F3
:1036E000300E002408B500221049114842F0C6F8F7
:1036F00048B910490E4842F027F960B90C4842F029
:103700006FF978B908BDFEF72DFC0A49084842F068
:103710001BF90028F2D0FEF725FC054842F060F9BD
:103720000028EFD0BDE80840FEF71CBCBD360008FD
:10373000340E00242002002410B5BAB00021044643
:10374000C82208A80691CDE90211CDE9041143F081
:1037500029FF274B22689A4201D03AB010BD9FED55
:10376000207B4FF4401308A88DED087B2B9305F0C8
:10377000A5FE90BB1F4C04F0B7FB0C2202A9D4F8A5
:10378000E0301D4843F00203C4F8E030D4F8E030E4
:103790000692002203F002039FED137B0093009B2F
:1037A00003238DED027BCDE9042301F045FBD4F822
:1037B000D8300022052143F000734D20C4F8D830E2
:1037C000D4F8D83003F000730193019B00F068FE39
:1037D0004D2000F0A3FE3AB010BDFEF7C3FBC9E7D1
:1037E000000004000000000000C000000200000013
:1037F000000004400044025800040258D0F80003BE
:1038000042F0B8BBD0F8000342F0D8BBD0F80003B8
:1038100042F0EABBD0F8000342F006BCD0F8000347
:1038200042F0B8BBD0F8000342F0C4BB0000000077
:1038300090F8CC330BB10020704710B5012204463C
:103840001348144902610222036243630023C4F84F
:10385000D003C0F8004301609FED0B7BC0E9062355
:1038600080ED027B01F04EFD40B9094802F0B4FA48
:103870000146204642F07AFB002010BDFEF772FBA5
:10388000F3E700BFAFF3008010000000010000006C
:103890001812002400000440D0F8D00308B502F04C
:1038A00061FA032802D8024B185C08BD022008BD4B
:1038B00028790408D0F8D00308B502F069FA032883
:1038C00002D8024B185C08BD022008BD2879040804
:1038D00008B5D0F8D00302F083FA032828BF0120EE
:1038E000C0B208BDD0F8D00308B502F065FA0328CD
:1038F00002D8024B185C08BD022008BD28790408D4
:10390000D0F8D00302F062BA10B584B0D0F8D0037A
:103910009DF8184000949DF81C400194BDF820408B
:10392000029401F09BFC032803D8034B185C04B0FD
:1039300010BD022004B010BD28790408D0F8D003CF
:1039400008B501F0CBFC032802D8024B185C08BD77
:10395000022008BD2879040810B584B0D0F8D0033F
:103960009DF818400094079C0194BDF820400294F3
:103970009DF82440039401F017FD032803D8034B5E
:10398000185C04B010BD022004B010BD28790408F2
:10399000D0F8D00302F014BA08B590F8CC3323B1B4
:1039A000C82000F0EDF8002008BD084600F028F817
:1039B000C82000F0E5F8002008BD00BFD0F8D033E3
:1039C0004FF02C0C0CFB013191F83B301BB1002067
:1039D00081F854207047002081F85520704700BFBF
:1039E000D0F8D0332C2202FB013191F83B3013B1D7
:1039F00091F85400704791F85500704700F0C0B836
:103A000002464FF480610348B2FA82F2520901F093
:103A100013BC00BF001402582D4B2E49D3F8882048
:103A200042F4700210B4C3F888201A6942F0100200
:103A30001A610B6803F00F03062B05D80B6823F0FF
:103A40000F0343F007030B60234B0024234A19683C
:103A5000204841F0010119601C6119680A401A6090
:103A600003681B0705D5036823F00F0343F0070322
:103A70000360194B00221A491A481B4C9A61DA61FB
:103A80001A629C62D8624FF0B04019635A6399631E
:103A9000DA6319645A64196821F4802119601A667E
:103AA000D0F8E420114942F48042114BC0F8E420E0
:103AB0000A681340B3F1005F03D20E4B0122C3F832
:103AC00008210D4B43F2D2025DF8044B1A60704797
:103AD00000ED00E000200052004402587FEDF6EABD
:103AE000800201010000FF01000202020010005CE0
:103AF0000000FFFF008000510040005210B503207D
:103B0000124C00F0BBFC05F01FF9114B11499A69EA
:103B10009B69C2F3032203F00F038A5CCB5C02F0C3
:103B20001F020D4903F01F03D04020FA03F3086081
:103B300004202360FEF706FF10B10124204610BDCB
:103B40000446FEF7D9FE204610BD00BF0800002441
:103B5000004402582C79040804000024034A044B52
:103B600011681B780B441360704700BF1C150024BC
:103B70000C000024014B1868704700BF1C1500247E
:103B800038B50446FFF7F6FF0546631C02D0044B28
:103B90001B781C44FFF7EEFF431BA342FAD338BD4A
:103BA0000C000024014B1868000C70470010005CEA
:103BB000034A536823EA000001435160704700BF85
:103BC00000040058F0B5002283B0019290F8502014
:103BD000012A00F03681034601201A6883F850005C
:103BE0009468660700F19A800C68C4F31305002DF1
:103BF00040F09D80C4F38464A040D6694FF01F0E4E
:103C00004D6830434FEA951CD06105F01F000CF061
:103C10000C0502F1300C84400EFA00FE5CF8050041
:103C200020EA0E0020434CF80500906810F0040FC5
:103C3000906859D1050757D40C6802F114064FF06B
:103C4000070C8F68E50DC4F3045405F004050CFA65
:103C500004FC07FA04F4705920EA0C002043705168
:103C6000BD48006800F07040B0F1805FD06800F09F
:103C7000E28010F0100F4D69D06840F00281C0F36F
:103C80008200400085400E69042E00F0DD8002F1C4
:103C90006004086854F8267000F0F84007F0004C03
:103CA00040EA0C00284344F826004D7E0E69A5F139
:103CB000010554F82600B5FA85F520F000406D099D
:103CC00040EAC57044F82600087E0D69A0F10100A5
:103CD000146905F01F05B0FA80F024F4F04440099F
:103CE000C002A840204310619068C40714D4CE6875
:103CF0000C6806F018079948D2F8C050F840C4F391
:103D00001307204025EA07052843C2F8C00094485D
:103D1000864243D0002C13DB002003E05A6D42F0B2
:103D200020025A65002283F8502003B0F0BD94FAB7
:103D3000A4F515B1B5FA85F5A840C4F384645CE731
:103D400088498A4200F0C18001F580718A4200F002
:103D5000BC80854D8548A968806801F0E076C04345
:103D600000F00100002800F0BF808148844200F08C
:103D700007818048844200F026817F488442CBD16D
:103D80004902C9D479498A42C6D1AA68002022F0E2
:103D9000E072324342F48002AA60C3E7002F75D07C
:103DA00094FAA4F0002800F0B380B0FA80F001305B
:103DB00000F01F00092840F2AB8094FAA4F5002D12
:103DC00000F01581B5FA85F50135AD0605F0F84529
:103DD00094FAA4F0002800F00881B0FA80F00126DF
:103DE000013000F01F0006FA00F0054394FAA4F435
:103DF000002C00F0F880B4FA84F403206FF01D0664
:103E0000013404F01F0410FB0460000540F0007052
:103E1000284302F114060727C50DC0F3045005F02E
:103E200004058740745924EA07048F6887403C439F
:103E300074510C686EE7C0F382004D694000854004
:103E400021E7022003B0F0BD106E0C6800F0F840CE
:103E5000A506B0EB846F2ED0506E00F0F84085427E
:103E600024D0906E00F0F840854229D0D06E00F04A
:103E7000F84085427FF438AFD06E20F00040D06625
:103E800032E7400800F008008540FCE6A00E013053
:103E900000F01F04092C2DD88506012005F0F845F7
:103EA000A040054304EB44000005B1E7506E20F04C
:103EB00000405066D5E7106E20F000401066CBE75A
:103EC000906E20F000409066D0E726482B4D00F51C
:103ED0008070A96850F8F86C8068304301F0E07693
:103EE000C04300F001003DE75A6D012042F020027E
:103EF0005A6517E78506012604EB440005F0F845EE
:103F000006FA04F41E382543000540F000707FE7F0
:103F100094FAA4F5002D72D0B5FA85F50135AD06F9
:103F200005F0F84594FAA4F0002866D0B0FA80F0C5
:103F30000126013000F01F0006FA00F0054394FA54
:103F4000A4F4002C56D0B4FA84F0013000F01F0025
:103F500000EB400000055BE70010005CFFFF0F0076
:103F60000000FF4700200240006302580060025832
:103F7000000084CB000052C70000B8CF00230240ED
:103F800008023FF5C9AE1F498A427FF4C5AE1E4AFA
:103F90001E481268A968920921F0E071A0FB020294
:103FA0003143920941F400010132A96052000192AB
:103FB000019A002A3FF4B0AE019A013A0192019AA7
:103FC000002AF9D1A8E611F080707FF4A5AE0D4962
:103FD0008A427FF4A1AEAA6822F0E072324342F036
:103FE0008072AA609EE60A4812E70220FDE64FF0C2
:103FF0008065EDE64FF440100AE702209EE74FF09F
:1040000080658FE70060025804000024632D3E05A0
:10401000000050FE38B5574A04460368934226D044
:1040200002F58072934222D0534B9B6813F4403FB9
:1040300022D005F053F863680546B3F5003F00F061
:104040008880B3F5403F6CD0B3F5803F00F08180AD
:10405000FFF7A8FD41F2030398424BD8474B9D421E
:104060002AD92268936843F48073936038BD444B27
:104070009B6813F4403FDCD14FF40020002106F090
:104080005FFA63680546B3F5101F6CD008D8B3F526
:10409000E01F50D016D9B3F5001FD9D14509D7E795
:1040A000B3F5201F45D0B3F5301FD1D1FFF77AFD0E
:1040B00041F20303984240D82268936823F4807346
:1040C000936038BDB3F5801F06D00AD9B3F5A01FA1
:1040D00002D0B3F5C01FBBD19B0C5B00B5FBF3F561
:1040E000B6E7B3F5002FF7D023F40022B2F5802F06
:1040F000F2D0ADE7234B9D4205D82268936823F4A4
:104100004073936038BD204B9D421AD91F4B2268E3
:104110009D42936829D823F4407343F4007393605D
:1041200038BD8508FFF73EFD41F203039842E1D810
:1041300094E7C5098CE705098AE7124BB3EB152F05
:10414000DBD22268936823F4407343F48073936056
:1041500038BD1B0CB5FBF3F5FFF724FD41F203035B
:104160009842C7D87AE7850972E743F440739360B1
:1041700038BD00BF0020024000630258002D31010D
:104180000023024021BCBE0041787D0181F0FA028B
:1041900070B5002382B00193002800F0D180456DF6
:1041A0000446002D00F0BB80226893689D0003D573
:1041B0009168724B0B4093609368D80016D4704B93
:1041C00070491B6890689B09A1FB03136E499B090A
:1041D0000140013341F0805191600193019B2BB16B
:1041E000019B013B0193019B002BF9D19368D900FE
:1041F00024D4636D012543F010036365A36D2B4345
:10420000A365936813F0040F636D1DD1DB061BD407
:10421000636D23F4817343F0020363659368DE07E3
:1042200028D45A4B9A4217D003F580739A4213D080
:10423000574B9B68D9071DD4564A15E09368002553
:1042400013F0040F636DE1D0636D012543F010039B
:104250002846636502B070BD4C4A4F4B92689B681C
:104260001343D80706D44D4A9368616823F47C133E
:104270000B439360FFF796FC41F20303A168984259
:10428000237F52D894F815C01A04206B42EA4C32AE
:1042900002430A43012B03D1236A013B42EA434212
:1042A000636A23B103F47873A16A0B431A4323684A
:1042B0003B49D86801401143D9609A6812F0040F55
:1042C0009A681CD112071AD4D868364A217D024058
:1042D00042EA8132E16A0A43DA6094F83820012A1E
:1042E0003AD01A6922F001021A611A692046616BFC
:1042F00022F070420A431A61FFF78CFE2368E268DD
:10430000012A21D01A6B22F00F021A63636D28462E
:1043100023F0030343F00103636502B070BDFCF7B3
:1043200001FAA56584F850503EE71029AAD1617DB5
:104330001A0442EA4132216B0A4342F01C02A9E707
:104340000125284602B070BD196BA26921F00F014A
:10435000013A0A431A63D9E7D4E90F12666C0139AE
:104360001869324342EA0142A16C0A430E490140F6
:104370000A4342F001021A61B7E700BFC0FFFF5FC6
:1043800004000024632D3E05C0FFFF6F00200240A3
:1043900000600258006302580021024000230240DE
:1043A00003C0F0FFFCBFFFFF1EF800FCF0B490F864
:1043B00050209AB00E68012A4DD003462B4C0022A3
:1043C00001201D681692A54283F85000179208D06C
:1043D000596D83F8502041F0200159651AB0F0BCA6
:1043E0007047234CA26852070BD5AA685A6D01206A
:1043F00042F020025A65002283F850201AB0F0BC27
:104400007047A86810F00400F0D1C6B1DFF868C0AA
:104410004F68DCF8082022F440423A43CCF80820E8
:10442000AD68A2682A43D40713D48A68DCF8084030
:104430001049324321400A43CCF80820DBE70E49FB
:104440008A6822F440428A60A868A2680243D007C2
:1044500005D50020CFE702201AB0F0BC70478C6869
:104460003046044A22408A60C5E700BF002002406F
:1044700000210240E0F0FFFF0023024006494FF612
:10448000FF0C0002054BCA6800F4E06002EA0C026F
:1044900010430343CB60704700ED00E00000FA05D5
:1044A0001B4BDB68C3F3022300B5C3F1070E03F116
:1044B000040CBEF1040F28BF4FF0040EBCF1060F30
:1044C0001AD9033B4FF0FF3C0CFA03FC22EA0C0222
:1044D0004FF0FF3C00280CFA0EFC21EA0C0101FA17
:1044E00003F141EA02010ADB09010A4BC9B20344A4
:1044F00083F800135DF804FB00221346E8E700F0A0
:104500000F000901044BC9B2034419765DF804FB9E
:1045100000ED00E000E100E0FCEC00E0002807DB3B
:10452000012300F01F01034A40098B4042F820306C
:10453000704700BF00E100E0002836D010B5437F8F
:10454000044603F0FF0263B3022223796277F3B9D2
:104550002368174A5A619A6822F018029A606279B1
:104560008AB122691A619A68D4E9050122F06002D1
:10457000024300209A609A6822F080020A430121D7
:104580009A60617710BD4FF0FF321A61EBE7D4E912
:104590000212204600F00EF808B92368DFE7012078
:1045A00010BD0277FCF74EF9CEE70120704700BF3F
:1045B000B71DC104CB071AD51E2310B401E0013B7F
:1045C00017D321FA03FC1CF0010FF8D0182A11D8D8
:1045D000DFE802F016101010101010102410101048
:1045E00010101010211010101010101014000120C5
:1045F00070472AB101205DF8044B7047062BF9D8AB
:10460000046800206161A36823F018031343A360CA
:104610005DF8044B7047072BF2D9EBE70F2BEFD96E
:10462000E8E700BF88B110B50379044603F0FF0244
:104630003BB100230221012221711846236122711E
:1046400010BD4271FCF754F9F3E70120704700BF39
:104650002DE9F04143790E460968012B00F097805F
:10466000012304290546144643714FF002030371E8
:1046700044D002F0100200683369012B08D11F23D7
:10468000846B934024EA0304736993402343836358
:104690000723C46B934024EA0304D6E90273012B79
:1046A00028D0022B28D0B7FA87F35B093B430B4392
:1046B00071689340914023434FF48044C363944016
:1046C000036823EA040340F6FE7403609440036821
:1046D00023EA040301240B43C021036001FA02F220
:1046E0000368002123EA0203036008462C71697104
:1046F000BDE8F0810023D9E70123D7E7FFF73AFAB5
:104700002B6807465B6B1CBBDFF8988013EA080F29
:104710000DD0FFF72FFAC31B012B2B6803D95A6B5F
:1047200012EA080F36D15B6B13EA080FF1D10120B2
:10473000FFF726FA2868B369036411E0FFF71AFA55
:10474000C31B012B2B6802D95A6B002A22DB5B6B3F
:10475000002BF3DB0120FFF713FA2868B3694364E9
:1047600004F0100240F2FF31836C914023EA010310
:10477000F16991400B43FF2183649140C36C23EAAC
:104780000103316A91400B433168C36474E702202E
:10479000BDE8F0812B69032243F0080310462B612A
:1047A0002A71A5E700800020002835D038B590F8A0
:1047B0006130044603F0FF024BB3236802206268B5
:1047C00084F86100E1691D6814481143A26828401B
:1047D000E5680143A06919600243596B104808401D
:1047E000104902435A631A6C1140D4E90402294368
:1047F00052051964596B42EA0052002021F440111D
:104800000A435A630123606684F8613038BD80F83A
:104810006020FCF7D5F8D0E701207047BFFFF8FF14
:10482000F8FEFFFF0000FFFF704700BF704700BFAA
:10483000036870B55D6804461E68EA0701D5F10596
:1048400056D4AA0601D5B3043BD4280701D53105B7
:1048500021D46A0701D5730572D4A80701D5B10523
:1048600004D4EA0601D5F30457D470BD23681A684E
:1048700022F400721A6002229A600122636E63665B
:10488000002384F8612084F86030236A002BE8D08C
:1048900020469847E5E723681A6822F400621A6008
:1048A00008229A600422636E1343636684F86120D1
:1048B0000022636A84F86020002BCAD02046984703
:1048C000C7E723681A6822F400521A6020229A600F
:1048D0000422636E43F00203636684F861200022C1
:1048E000636A84F86020002BAFD020469847ACE77D
:1048F0001A6822F480721A60426E42F00102426627
:1049000001229A60042380F86130002380F860302F
:10491000436A002B95D0984793E723681020012124
:1049200000251A6822F480521A6098602046636E4F
:1049300084F86050636684F86110FFF777FF70BDFC
:10494000236820461A6822F480621A6004229A6062
:10495000FFF76AFF81E700BF90F86020012A65D069
:104960000346C1EBC100022203EB800070B40124B6
:1049700083F8612083F86040826BC46A056B12057E
:10498000A4F1090C42EA0542C56BBCF1010F42EAF1
:10499000040242EA455222D9456B42EA056281B9D6
:1049A00018682349456A9C6A294011434162846121
:1049B00000220121104683F8611083F8602070BC4A
:1049C00070470B2C1C6829D1E5691A492940056CF0
:1049D000806A41EA85411143E1612061E8E7446B67
:1049E00004F07F44144361B91968114A4E6A586B48
:1049F00032409D6A20F07F4022434A628D61886286
:104A0000D6E719680A4ACD692A40856A2243446B71
:104A100024F07F44CA610D610C62C9E7E56904496D
:104A2000806A29401143E1612061C1E7022070479B
:104A3000F0FFCC00F0FFC0002DE9F04F99B0044624
:104A40004C22474905A842F04FFE002C00F0C081DF
:104A50002368444A93427ED094F8982002F0FF01E4
:104A6000002A71D09A6922F010029A61FFF782F849
:104A7000054604E0FFF77EF8401B0A2858D8236853
:104A80009A691107F6D49A6942F001029A61FFF718
:104A900071F8054604E0FFF76DF8401B0A2847D877
:104AA00023689A69D207F6D59A6942F002029A61A0
:104AB000227C012A9A690CBF22F0400242F0400297
:104AC0009A61627C012A9A690CBF42F4804222F406
:104AD00080429A61A27C012A9A690CBF22F480521A
:104AE00042F480529A619A69D4E9020122F4407238
:104AF000012942EA00029A619A6922F0A4029A61AD
:104B00001A6922F010021A612ED089B302299A691B
:104B100000F0858142F0800203299A611A6942F00F
:104B200010021A6124D19A6942F020029A611FE0B2
:104B3000D4F89C30012003220343C4F89C3084F84D
:104B4000982019B0BDE8F08F204684F89910FBF743
:104B5000BBFF236886E702F5807262607CE700BFD6
:104B6000C077040800A000409A6942F004029A61EC
:104B7000B0F5407FD4E9061202F1FF3201F1FF31B6
:104B80004FEA022242EA4162216A01F1FF3142EA20
:104B90000102616901F1FF3142EA0142DA610ED19D
:104BA000A16AD4E90B020139013A0138120142EA43
:104BB00000220A43616A013942EA0142DA60D4F80C
:104BC00060B0BBF1000F05D0D3F8C020616E0A437E
:104BD000C3F8C020E26D1BEB020F019240F0FC8095
:104BE000A26E0392D4E91085B8F1000F0BD018A97A
:104BF000D3F8BC2001EB850122F0070251F84C1CD0
:104C00000A43C3F8BC20D4E9126066B118A9D3F8EE
:104C1000BC2001EB800122F0700251F84C1C42EAEA
:104C20000112C3F8BC20D4E914276AB10DF1600C5D
:104C3000D3F8BC100CEB870C21F4E0615CF84CCC91
:104C400041EA0C21C3F8BC1077498B4200F0DE80AA
:104C500007FB02F24FF0010105FB08F9734D0292C8
:104C60000022D4F834E000FB06FAC4F89C20C4F813
:104C7000942084F89810D3F88420D4F838C02A40BF
:104C8000E76BA06D42EA8E02C3F88420D3F884203B
:104C900022F47F0242EA0C42C3F884200EEB0C029D
:104CA000D3F88810294041EA820102EB4702C3F899
:104CB0008810D3F8881021F4FE0141EA0741C3F8B7
:104CC0008810D3F8A010294041EA82014A44C3F871
:104CD000A010D3F8A01021F4FE0141EA0841C3F866
:104CE000A010D3F8B010294041EA8201C3F8B010F7
:104CF00002EB0A01D3F8B02022F4FE0848EA064687
:104D0000C3F8B060D3F8AC20029E2A4042EA810288
:104D10003144C3F8AC20D3F8F0202A4042EA8102A3
:104D200001EB4001C3F8F020D3F8F02022F47C120C
:104D300042EA0042C3F8F0203D4A7244920002EB7E
:104D40008C0C0CEBC70707EB890909EB8A08D3F831
:104D5000C0A00AEA050A08EB860E4AEA81010EEBBA
:104D6000C006C3F8C010D3F8C010019D21F47C1117
:104D7000039841EA054100FB05F5C3F8C01006EBB6
:104D80008505D3F8C0A000FB0BF12AF07C5A05EB97
:104D900081014AEA0B6AC3F8C0A0264BC4F88850C8
:104DA0009942E266C4F89010C4E91CC7C4E91E9891
:104DB000C4E920E61FD88A4206D2002342F8043B09
:104DC000D4F890309A42F8D3002019B0BDE8F08FA3
:104DD000012019B0BDE8F08FA16E18A8D3F8C82043
:104DE000039100EB810122F0070251F84C1C0A43A9
:104DF000C3F8C820F6E6D4F89C300322012043F023
:104E00002003C4F89C3084F898209AE6D4F804C0B3
:104E1000DCF8081021F00301CCF8081018E742F084
:104E200020029A61A4E600BF00A000400300FFFF3B
:104E3000002B0010FCD300402DE9F04F0C6883B02C
:104E4000002C00F0A7804FF0000C8A4F634601222F
:104E50009A4012EA040E00F096804D6805F00309AE
:104E600009F1FF36012E40F29880B9F1030F40F0AE
:104E7000D28009FA0CF26FEA0208066815F4403F86
:104E800006EA080642EA060202607CD0D7F8F4205F
:104E900023F0030803F003090F2642F0020208F191
:104EA000B0484FEA8909C7F8F42008F58068D7F8B8
:104EB000F42006FA09F602F002020192019AD8F8EB
:104EC000082022EA06026C4EB04228D006F5806621
:104ED000B04200F0AC80694EB04200F0AD80684E48
:104EE000B04200F09F80674EB04200F0AF80664E47
:104EF000B04200F0B080654EB04200F0A280644E37
:104F0000B04200F0AD80634EB04200F0AE80624E21
:104F1000B0420CBF09260A2606FA09F63243C8F841
:104F200008204FF0B04215F4801F6FEA0E06126899
:104F30004FF0B0480CBF32404EEA020215F4001F99
:104F4000C8F80020D8F804204FF0B0480CBF324019
:104F50004EEA020215F4003FC8F80420D8F8842075
:104F60004FF0B0480CBF32404EEA0202ED034FF062
:104F7000B045C8F88420D8F8802054BF32404EEAAB
:104F80000202C5F8802001330CF1020C34FA03F25E
:104F90007FF45DAF03B0BDE8F08F4FF00308866883
:104FA00008FA0CF826EA080ACE686FEA080806FA3A
:104FB0000CF646EA0A068660C5F30016D0F804A08F
:104FC0009E402AEA020232434260C268B9F1020FEF
:104FD0008E6802EA080206FA0CF646EA020609FAA8
:104FE0000CF2C6607FF449AF4FEAD30903F0070B18
:104FF0000F2600EB89094FEA8B0BD9F820A006FA9F
:105000000BF62AEA060A0E6906FA0BF646EA0A06C3
:10501000C9F8206031E74FF0030808FA0CF86FEA8E
:105020000808D2E7032606FA09F6324377E7012695
:1050300006FA09F6324372E7022606FA09F6324307
:105040006DE7062606FA09F6324368E7042606FAF3
:1050500009F6324363E7052606FA09F632435EE7AE
:10506000072606FA09F6324359E7082606FA09F632
:10507000324354E700440258000002580008025826
:10508000000C025800100258001402580018025870
:10509000001C02580020025800240258002900F089
:1050A000A48000232DE9F04FDFF8689183B0DFF88A
:1050B0006881DFF868A1DFF868B14FF0010E0EFAE1
:1050C00003F212EA010C6BD023F0030503F0030492
:1050D0000F2640454D444FEA8404AF6806FA04F6B3
:1050E00007EA060701971FD050451AD058455ED0F1
:1050F000434FB84265D0434FB84267D0424FB842A1
:105100005AD0424FB8426BD0414FB8426ED0DFF810
:1051100014E170455FD0DFF810E170456BD04FF0BF
:105120000A0E0EFA04F400E00024019FA74219D1F0
:105130004FF0B044D4F8807027EA0C07C4F88070B0
:10514000D4F8847027EA0C07C4F88470676827EAEB
:105150000C076760276827EA0C072760AC6824EA19
:105160000604AC605D00032403F007060F27AC4083
:105170000568B6002543B7400560DD0800EB8505EE
:105180002E6A26EA07062E62C56825EA0405C56070
:10519000456825EA02024260826822EA04028260CF
:1051A000013331FA03F288D103B0BDE8F08F4FF03C
:1051B000020E0EFA04F4B8E74FF0050E0EFA04F4EE
:1051C000B3E74FF0030E0EFA04F4AEE74FF0040E0F
:1051D0000EFA04F4A9E74FF0080E0EFA04F4A4E75F
:1051E0004FF0060E0EFA04F49FE770474FF0070EDB
:1051F0000EFA04F499E74FF0090E0EFA04F494E75E
:10520000000C0258001002580014025800180258EE
:10521000001C025800040058000002580004025804
:10522000000802580020025800240258036919425D
:1052300014BF01200020704702B909048161704742
:105240004FF0B042D2F88810014200D1704708B543
:10525000C2F88800FCF7F4FC08BD00BF2DE9F04F50
:1052600090F8F86285B00446012E9DF838709DF8DC
:105270003C80BDF840902CD0002602F07F0A4FF011
:105280002C0CD009B34601250CFB01FC63F3070B82
:1052900084F8F85261F30F2B6AF3174B60F31F6B1E
:1052A00004EB0C000CF1380C80F83D6080F83F8076
:1052B000A0F8409044F80CB080F83C700097CDE91D
:1052C0000189206809F0E2FB84F8F86205B0BDE8C6
:1052D000F08F022005B0BDE8F08F00BF90F8F832E3
:1052E000012B0CD0012310B50446006884F8F83275
:1052F00009F036FD0023184684F8F83210BD02206C
:10530000704700BF00284DD02DE9F04190F8F932E8
:105310008AB00646046803F0FF02002B3CD020460A
:1053200003236D46371D86F8F932E36B344613F4D8
:10533000807308BFF36009F0B3F954F810CB0FCCB9
:105340000FC50FCC0FC594E8030085E80300604645
:1053500097E80E0009F0FAF80121306809F0A8F981
:10536000B446EE465CF8108BBCE80F00AEE80F00C8
:10537000BCE80F00AEE80F0094E8030085E80300E6
:10538000404697E80E0009F04FFA0123002086F806
:10539000F9320AB0BDE8F08180F8F822FEF7CCF9C6
:1053A0003068BDE7012070478C462C2170B501FBA9
:1053B0000C019DF81060059DBDF818409DF81CE09B
:1053C00081F83B2081F83F304EBB81F83DE04FF043
:1053D000030E2C2101FB0C0181F842E0032B09D8BC
:1053E000DFE803F02C0220202C23002203FB0C0317
:1053F00083F842202C21002601FB0CF301FB0C0159
:10540000C2186033383182F839C05564D4641665E7
:10541000C652027B0068BDE8704009F0D7BB4FF070
:10542000020ED6E72C2303FB0C03CAB993F85510E0
:105430000029DDD0022283F84220DBE7012ED9D1FA
:10544000002AD7D12C2303FB0C038CB9012283F84B
:1054500055202C23022203FB0C0383F84220C9E7CA
:1054600093F85420002AC3D0022283F84220C1E7D7
:1054700093F85520002ABBD0EBE700BF2DE9F04F91
:10548000056885B00446284609F0CAF9012802D00B
:1054900005B0BDE8F08F206809F0B6F90028F7D014
:1054A000206809F0B1F910F4001F206802D04FF411
:1054B0000013436109F0A8F910F4801F206802D09E
:1054C0004FF48013436109F09FF910F0806F20685A
:1054D00002D04FF08063436109F096F910F0020F9B
:1054E000206801D00223436109F08EF910F0005FBB
:1054F000206875D109F088F9C20100F11081206897
:1055000009F082F9030700F10381206809F07CF9B2
:10551000C706266800F1E980304609F075F9800178
:10552000B6D5206809F018FCA2688146002A00F070
:10553000D780002605F5A0654FF02C0A2BE009F076
:1055400067F9410763D508F5A063042203EB47130D
:105550009A6007220AFB0743394683F861202068D6
:1055600009F0FEFB3946206809F052F910F4007F7B
:10557000394620687BD008F5A06809F0F1FB4FF4AC
:10558000007308EB4718C8F80830A26801362035C8
:10559000964280F0A58006F00F0329FA03F3D9079D
:1055A000F4D52B68F7B2D4F800801B043946404686
:1055B000C5D409F02DF910F0040B40D008F5A0680F
:1055C00004230722394608EB4718C8F808300AFBBD
:1055D000074383F86120206809F0C2FBA268D5E781
:1055E0004FF000534361D5F84034D90782D41021DD
:1055F000284609F093F8284609F0BAF8A369022B67
:1056000000F01F822046FEF701F9206872E7394654
:10561000206809F0FDF8C20540F1BB8008F5A063E1
:105620004FF48072394603EB47139A6008220AFB55
:10563000074383F86120206809F092FB92E739461E
:10564000206809F0E5F8810640F1B98008F5A06806
:1056500020220AFB07F308EB4718C8F80820E218D5
:1056600092F83D10012900F05181A2688EE709F0FF
:10567000CFF8C20740F1B78008F5A0682023E168A1
:10568000780108EB471BCBF8083051B1DBF810204C
:105690000AFB074CC2F31202DCF848309B1ACCF824
:1056A00050300AFB07430022DA65012283F86120AB
:1056B000CBF8082093F83F2012F0FD0200F0C680DE
:1056C000012A00F0158101290AFB074700F0B38089
:1056D00097F8543083F0010387F85430A26855E7F7
:1056E00023684FF000725A61D2E6B36923F01003C9
:1056F000B361376AC7F34341C7F30A12022902D1E3
:10570000002A40F0AC80B36943F01003B36103E7B3
:105710002046FEF773F8206808234361F6E6266802
:10572000D6F840340293D6F840340393039B23F019
:105730002E030393029B9B0707D5029BDF0700F113
:10574000A580039B43F002030393029B180715D522
:10575000039B43F008030393029B590740F19A808F
:10576000A169022900F0EB802369012B03D14EF6D9
:105770006022C6F804242046FEF750F8029B9A06E1
:1057800003D5039B43F020030393039BC6F84034E7
:10579000B5E63946206809F03BF8030733D508F52C
:1057A000A0630822394603EB47139A6006220AFBDE
:1057B000074383F86120206809F0D2FAD2E639461F
:1057C000206809F025F810F4007B67D008F5A06385
:1057D0004FF400723946206803EB47139A6009F0D2
:1057E000BFFAA268D2E63946206809F011F88006AF
:1057F00040F1B08008F5A068202308EB4718C8F8EE
:105800000830A268C2E63946206809F001F8400570
:1058100040F1888008F5A0634FF48062394603EBBD
:1058200047139A6009220AFB074383F86120206826
:1058300009F096FA96E63B6DB7F84020013B134419
:10584000B3FBF2F3DB073FF543AF0EE739462068C1
:1058500009F086FA1023E168CBF8083033E707F047
:105860000F074FF02C0808FB0748D8F84410002910
:105870003FF449AFD8F85030D8F84C001344834275
:1058800040F21A81042388F860303CE72046FDF797
:10589000B9FF56E72046FDF7C5FF6FE73946206898
:1058A00008F0B6FF10F0010300F0D0800AFB0742B9
:1058B00039462068C2F85CB0019208F0A9FF08F5EB
:1058C000A06310F0400F019A03EB471304D00121AD
:1058D00082F83D1040229A60012239469A600AFB04
:1058E000074383F86120206809F03AFAA2684DE680
:1058F00050F8081041F0005140F808103946204691
:1059000083F86020FDF786FFE168DCE682F83DB0B1
:10591000603340F202323946E252206809F020FA40
:10592000A26833E63946206808F072FF01067FF569
:1059300019AE08F5A063802203EB471308E6029B2B
:10594000206803F4C023B3F5802F18BF012109F0AC
:1059500023F810E73946206808F05AFF10F0020BD0
:1059600000F0C88008F5A0680AFB07F102207A0160
:1059700008EB47139860631893F86130012B00F02F
:10598000D380023B072B19D801A151F823F000BFA7
:105990006B560008B1590008175A0008B1590008A1
:1059A000F3590008CF590008015A0008CF590008E0
:1059B0000AFB07434FF0020283F861200AFB07430A
:1059C0003946204693F86020FDF724FF4DE60AFB98
:1059D00007414FF0020381F86130CB6D0133022B98
:1059E000CB6540F210810023CB65042381F8603041
:1059F000E4E70AFB074340F20522A3F86020DDE755
:105A00000AFB07F34FF40170E1186033CA6D0132ED
:105A1000CA65E052D2E70AFB07F340F2022003F125
:105A200060012344605293F83F3013F0FD0FC5D15D
:105A300058F8023023F0804343F0004348F8023026
:105A4000BCE70121206808F0A7FFDBE539462068A4
:105A5000019308F0DDFE420616D50AFB0742019BC2
:105A600008F5A0683946D365052308EB471882F886
:105A70006130012382F83D30206809F071F940233C
:105A8000C8F80830A26881E53946206808F0C0FEF1
:105A900010F0080B4DD008F5A0630822394603EB3F
:105AA00047139A6006220AFB074383F861202068A7
:105AB00009F056F9A26869E5304606F5A06601923C
:105AC00008F07EFE06EB4711D8F84430019A0969C8
:105AD000D8F850001344C1F3C9411044C8F8443009
